{
  "contractName": "Freelancer",
  "abi": [
    {
      "inputs": [],
      "stateMutability": "nonpayable",
      "type": "constructor"
    },
    {
      "anonymous": false,
      "inputs": [
        {
          "indexed": true,
          "internalType": "uint256",
          "name": "milestoneId",
          "type": "uint256"
        },
        {
          "indexed": true,
          "internalType": "uint256",
          "name": "projectId",
          "type": "uint256"
        }
      ],
      "name": "MilestoneApproved",
      "type": "event"
    },
    {
      "anonymous": false,
      "inputs": [
        {
          "indexed": true,
          "internalType": "uint256",
          "name": "milestoneId",
          "type": "uint256"
        },
        {
          "indexed": true,
          "internalType": "uint256",
          "name": "projectId",
          "type": "uint256"
        },
        {
          "indexed": false,
          "internalType": "uint256",
          "name": "amount",
          "type": "uint256"
        }
      ],
      "name": "MilestoneCreated",
      "type": "event"
    },
    {
      "anonymous": false,
      "inputs": [
        {
          "indexed": true,
          "internalType": "uint256",
          "name": "milestoneId",
          "type": "uint256"
        },
        {
          "indexed": true,
          "internalType": "uint256",
          "name": "projectId",
          "type": "uint256"
        },
        {
          "indexed": false,
          "internalType": "string",
          "name": "submissionHash",
          "type": "string"
        }
      ],
      "name": "MilestoneSubmitted",
      "type": "event"
    },
    {
      "anonymous": false,
      "inputs": [
        {
          "indexed": true,
          "internalType": "uint256",
          "name": "milestoneId",
          "type": "uint256"
        },
        {
          "indexed": true,
          "internalType": "uint256",
          "name": "projectId",
          "type": "uint256"
        },
        {
          "indexed": false,
          "internalType": "uint256",
          "name": "amount",
          "type": "uint256"
        }
      ],
      "name": "PaymentReleased",
      "type": "event"
    },
    {
      "anonymous": false,
      "inputs": [
        {
          "indexed": true,
          "internalType": "uint256",
          "name": "projectId",
          "type": "uint256"
        }
      ],
      "name": "ProjectCompleted",
      "type": "event"
    },
    {
      "anonymous": false,
      "inputs": [
        {
          "indexed": true,
          "internalType": "uint256",
          "name": "projectId",
          "type": "uint256"
        },
        {
          "indexed": true,
          "internalType": "address",
          "name": "client",
          "type": "address"
        },
        {
          "indexed": true,
          "internalType": "address",
          "name": "freelancer",
          "type": "address"
        },
        {
          "indexed": false,
          "internalType": "uint256",
          "name": "totalAmount",
          "type": "uint256"
        }
      ],
      "name": "ProjectCreated",
      "type": "event"
    },
    {
      "inputs": [],
      "name": "milestoneCounter",
      "outputs": [
        {
          "internalType": "uint256",
          "name": "",
          "type": "uint256"
        }
      ],
      "stateMutability": "view",
      "type": "function"
    },
    {
      "inputs": [
        {
          "internalType": "uint256",
          "name": "",
          "type": "uint256"
        }
      ],
      "name": "milestoneSubmissions",
      "outputs": [
        {
          "internalType": "string",
          "name": "",
          "type": "string"
        }
      ],
      "stateMutability": "view",
      "type": "function"
    },
    {
      "inputs": [
        {
          "internalType": "uint256",
          "name": "",
          "type": "uint256"
        }
      ],
      "name": "milestones",
      "outputs": [
        {
          "internalType": "uint256",
          "name": "id",
          "type": "uint256"
        },
        {
          "internalType": "uint256",
          "name": "projectId",
          "type": "uint256"
        },
        {
          "internalType": "string",
          "name": "description",
          "type": "string"
        },
        {
          "internalType": "uint256",
          "name": "amount",
          "type": "uint256"
        },
        {
          "internalType": "bool",
          "name": "isApproved",
          "type": "bool"
        },
        {
          "internalType": "bool",
          "name": "isPaid",
          "type": "bool"
        },
        {
          "internalType": "bool",
          "name": "isSubmitted",
          "type": "bool"
        }
      ],
      "stateMutability": "view",
      "type": "function"
    },
    {
      "inputs": [],
      "name": "owner",
      "outputs": [
        {
          "internalType": "address",
          "name": "",
          "type": "address"
        }
      ],
      "stateMutability": "view",
      "type": "function"
    },
    {
      "inputs": [],
      "name": "platformFeePercentage",
      "outputs": [
        {
          "internalType": "uint256",
          "name": "",
          "type": "uint256"
        }
      ],
      "stateMutability": "view",
      "type": "function"
    },
    {
      "inputs": [],
      "name": "projectCounter",
      "outputs": [
        {
          "internalType": "uint256",
          "name": "",
          "type": "uint256"
        }
      ],
      "stateMutability": "view",
      "type": "function"
    },
    {
      "inputs": [
        {
          "internalType": "uint256",
          "name": "",
          "type": "uint256"
        },
        {
          "internalType": "uint256",
          "name": "",
          "type": "uint256"
        }
      ],
      "name": "projectMilestones",
      "outputs": [
        {
          "internalType": "uint256",
          "name": "",
          "type": "uint256"
        }
      ],
      "stateMutability": "view",
      "type": "function"
    },
    {
      "inputs": [
        {
          "internalType": "uint256",
          "name": "",
          "type": "uint256"
        }
      ],
      "name": "projects",
      "outputs": [
        {
          "internalType": "uint256",
          "name": "id",
          "type": "uint256"
        },
        {
          "internalType": "address",
          "name": "client",
          "type": "address"
        },
        {
          "internalType": "address",
          "name": "freelancer",
          "type": "address"
        },
        {
          "internalType": "uint256",
          "name": "totalAmount",
          "type": "uint256"
        },
        {
          "internalType": "string",
          "name": "title",
          "type": "string"
        },
        {
          "internalType": "bool",
          "name": "isCompleted",
          "type": "bool"
        },
        {
          "internalType": "uint256",
          "name": "createdAt",
          "type": "uint256"
        }
      ],
      "stateMutability": "view",
      "type": "function"
    },
    {
      "inputs": [
        {
          "internalType": "address",
          "name": "",
          "type": "address"
        },
        {
          "internalType": "uint256",
          "name": "",
          "type": "uint256"
        }
      ],
      "name": "userProjects",
      "outputs": [
        {
          "internalType": "uint256",
          "name": "",
          "type": "uint256"
        }
      ],
      "stateMutability": "view",
      "type": "function"
    },
    {
      "inputs": [
        {
          "internalType": "address",
          "name": "_freelancer",
          "type": "address"
        },
        {
          "internalType": "uint256",
          "name": "_totalAmount",
          "type": "uint256"
        },
        {
          "internalType": "string",
          "name": "_title",
          "type": "string"
        }
      ],
      "name": "createProject",
      "outputs": [],
      "stateMutability": "payable",
      "type": "function"
    },
    {
      "inputs": [
        {
          "internalType": "uint256",
          "name": "_projectId",
          "type": "uint256"
        },
        {
          "internalType": "string",
          "name": "_description",
          "type": "string"
        },
        {
          "internalType": "uint256",
          "name": "_amount",
          "type": "uint256"
        }
      ],
      "name": "createMilestone",
      "outputs": [],
      "stateMutability": "nonpayable",
      "type": "function"
    },
    {
      "inputs": [
        {
          "internalType": "uint256",
          "name": "_milestoneId",
          "type": "uint256"
        },
        {
          "internalType": "string",
          "name": "_submissionHash",
          "type": "string"
        }
      ],
      "name": "submitMilestone",
      "outputs": [],
      "stateMutability": "nonpayable",
      "type": "function"
    },
    {
      "inputs": [
        {
          "internalType": "uint256",
          "name": "_milestoneId",
          "type": "uint256"
        }
      ],
      "name": "approveMilestone",
      "outputs": [],
      "stateMutability": "nonpayable",
      "type": "function"
    },
    {
      "inputs": [
        {
          "internalType": "uint256",
          "name": "_projectId",
          "type": "uint256"
        }
      ],
      "name": "getProject",
      "outputs": [
        {
          "internalType": "uint256",
          "name": "id",
          "type": "uint256"
        },
        {
          "internalType": "address",
          "name": "client",
          "type": "address"
        },
        {
          "internalType": "address",
          "name": "freelancer",
          "type": "address"
        },
        {
          "internalType": "uint256",
          "name": "totalAmount",
          "type": "uint256"
        },
        {
          "internalType": "string",
          "name": "title",
          "type": "string"
        },
        {
          "internalType": "bool",
          "name": "isCompleted",
          "type": "bool"
        },
        {
          "internalType": "uint256",
          "name": "createdAt",
          "type": "uint256"
        }
      ],
      "stateMutability": "view",
      "type": "function"
    },
    {
      "inputs": [
        {
          "internalType": "uint256",
          "name": "_milestoneId",
          "type": "uint256"
        }
      ],
      "name": "getMilestone",
      "outputs": [
        {
          "internalType": "uint256",
          "name": "id",
          "type": "uint256"
        },
        {
          "internalType": "uint256",
          "name": "projectId",
          "type": "uint256"
        },
        {
          "internalType": "string",
          "name": "description",
          "type": "string"
        },
        {
          "internalType": "uint256",
          "name": "amount",
          "type": "uint256"
        },
        {
          "internalType": "bool",
          "name": "isApproved",
          "type": "bool"
        },
        {
          "internalType": "bool",
          "name": "isPaid",
          "type": "bool"
        },
        {
          "internalType": "bool",
          "name": "isSubmitted",
          "type": "bool"
        }
      ],
      "stateMutability": "view",
      "type": "function"
    },
    {
      "inputs": [
        {
          "internalType": "address",
          "name": "_user",
          "type": "address"
        }
      ],
      "name": "getUserProjects",
      "outputs": [
        {
          "internalType": "uint256[]",
          "name": "",
          "type": "uint256[]"
        }
      ],
      "stateMutability": "view",
      "type": "function"
    },
    {
      "inputs": [
        {
          "internalType": "uint256",
          "name": "_projectId",
          "type": "uint256"
        }
      ],
      "name": "getProjectMilestones",
      "outputs": [
        {
          "internalType": "uint256[]",
          "name": "",
          "type": "uint256[]"
        }
      ],
      "stateMutability": "view",
      "type": "function"
    },
    {
      "inputs": [
        {
          "internalType": "uint256",
          "name": "_newFee",
          "type": "uint256"
        }
      ],
      "name": "updatePlatformFee",
      "outputs": [],
      "stateMutability": "nonpayable",
      "type": "function"
    },
    {
      "inputs": [],
      "name": "getContractBalance",
      "outputs": [
        {
          "internalType": "uint256",
          "name": "",
          "type": "uint256"
        }
      ],
      "stateMutability": "view",
      "type": "function"
    }
  ],
  "bytecode": "0x608060405260fa60085534801561001557600080fd5b5033600760006101000a81548173ffffffffffffffffffffffffffffffffffffffff021916908373ffffffffffffffffffffffffffffffffffffffff1602179055506133f1806100666000396000f3fe6080604052600436106101145760003560e01c80638da5cb5b116100a0578063e32e723c11610064578063e32e723c146103d4578063e89e4ed614610411578063f0f3f2c814610454578063f6baaec714610497578063f8a518ed146104c257610114565b80638da5cb5b14610303578063aa0b59881461032e578063c438b40f14610357578063cdd78cfc14610380578063da13b0d3146103ab57610114565b8063476a119b116100e7578063476a119b1461021957806352766d80146102425780636cb0adba1461027f5780636f9fb98a146102bc57806387f4d732146102e757610114565b8063107046bd146101195780632442e1cb1461015c57806325e7c6351461019f5780632fa9c007146101dc575b600080fd5b34801561012557600080fd5b50610140600480360381019061013b9190612112565b6104ed565b6040516101539796959493929190612243565b60405180910390f35b34801561016857600080fd5b50610183600480360381019061017e9190612112565b610604565b60405161019697969594939291906122b9565b60405180910390f35b3480156101ab57600080fd5b506101c660048036038101906101c19190612112565b6107cb565b6040516101d3919061232f565b60405180910390f35b3480156101e857600080fd5b5061020360048036038101906101fe919061237d565b61086b565b60405161021091906123bd565b60405180910390f35b34801561022557600080fd5b50610240600480360381019061023b919061250d565b61089c565b005b34801561024e57600080fd5b5061026960048036038101906102649190612112565b610b39565b6040516102769190612627565b60405180910390f35b34801561028b57600080fd5b506102a660048036038101906102a19190612649565b610c00565b6040516102b391906123bd565b60405180910390f35b3480156102c857600080fd5b506102d1610c31565b6040516102de91906123bd565b60405180910390f35b61030160048036038101906102fc9190612689565b610c39565b005b34801561030f57600080fd5b50610318611058565b60405161032591906126f8565b60405180910390f35b34801561033a57600080fd5b5061035560048036038101906103509190612112565b61107e565b005b34801561036357600080fd5b5061037e60048036038101906103799190612112565b61115d565b005b34801561038c57600080fd5b506103956113cf565b6040516103a291906123bd565b60405180910390f35b3480156103b757600080fd5b506103d260048036038101906103cd9190612713565b6113d5565b005b3480156103e057600080fd5b506103fb60048036038101906103f69190612782565b6118d7565b6040516104089190612627565b60405180910390f35b34801561041d57600080fd5b5061043860048036038101906104339190612112565b61196e565b60405161044b97969594939291906122b9565b60405180910390f35b34801561046057600080fd5b5061047b60048036038101906104769190612112565b611a5f565b60405161048e9796959493929190612243565b60405180910390f35b3480156104a357600080fd5b506104ac611c9c565b6040516104b991906123bd565b60405180910390f35b3480156104ce57600080fd5b506104d7611ca2565b6040516104e491906123bd565b60405180910390f35b60016020528060005260406000206000915090508060000154908060010160009054906101000a900473ffffffffffffffffffffffffffffffffffffffff16908060020160009054906101000a900473ffffffffffffffffffffffffffffffffffffffff1690806003015490806004018054610568906127de565b80601f0160208091040260200160405190810160405280929190818152602001828054610594906127de565b80156105e15780601f106105b6576101008083540402835291602001916105e1565b820191906000526020600020905b8154815290600101906020018083116105c457829003601f168201915b5050505050908060050160009054906101000a900460ff16908060060154905087565b60008060606000806000808760006002600083815260200190815260200160002060000154141561066a576040517f08c379a00000000000000000000000000000000000000000000000000000000081526004016106619061285c565b60405180910390fd5b6000600260008b81526020019081526020016000206040518060e001604052908160008201548152602001600182015481526020016002820180546106ae906127de565b80601f01602080910402602001604051908101604052809291908181526020018280546106da906127de565b80156107275780601f106106fc57610100808354040283529160200191610727565b820191906000526020600020905b81548152906001019060200180831161070a57829003601f168201915b50505050508152602001600382015481526020016004820160009054906101000a900460ff161515151581526020016004820160019054906101000a900460ff161515151581526020016004820160029054906101000a900460ff1615151515815250509050806000015181602001518260400151836060015184608001518560a001518660c0015198509850985098509850985098505050919395979092949650565b600060205280600052604060002060009150905080546107ea906127de565b80601f0160208091040260200160405190810160405280929190818152602001828054610816906127de565b80156108635780601f1061083857610100808354040283529160200191610863565b820191906000526020600020905b81548152906001019060200180831161084657829003601f168201915b505050505081565b6003602052816000526040600020818154811061088757600080fd5b90600052602060002001600091509150505481565b816000600260008381526020019081526020016000206000015414156108f7576040517f08c379a00000000000000000000000000000000000000000000000000000000081526004016108ee9061285c565b60405180910390fd5b60006002600085815260200190815260200160002090506000600160008360010154815260200190815260200160002090508060020160009054906101000a900473ffffffffffffffffffffffffffffffffffffffff1673ffffffffffffffffffffffffffffffffffffffff163373ffffffffffffffffffffffffffffffffffffffff16146109bb576040517f08c379a00000000000000000000000000000000000000000000000000000000081526004016109b2906128c8565b60405180910390fd5b8160040160009054906101000a900460ff1615610a0d576040517f08c379a0000000000000000000000000000000000000000000000000000000008152600401610a0490612934565b60405180910390fd5b8160040160019054906101000a900460ff1615610a5f576040517f08c379a0000000000000000000000000000000000000000000000000000000008152600401610a56906129a0565b60405180910390fd5b8160040160029054906101000a900460ff1615610ab1576040517f08c379a0000000000000000000000000000000000000000000000000000000008152600401610aa890612a0c565b60405180910390fd5b60018260040160026101000a81548160ff021916908315150217905550836000808781526020019081526020016000209080519060200190610af4929190612025565b508160010154857f556e3b296d5e8c8bab27684b52ae96905507befd2d188ce6f4453a6717dd9c0086604051610b2a919061232f565b60405180910390a35050505050565b606081600060016000838152602001908152602001600020600001541415610b96576040517f08c379a0000000000000000000000000000000000000000000000000000000008152600401610b8d90612a78565b60405180910390fd5b60046000848152602001908152602001600020805480602002602001604051908101604052809291908181526020018280548015610bf357602002820191906000526020600020905b815481526020019060010190808311610bdf575b5050505050915050919050565b60046020528160005260406000208181548110610c1c57600080fd5b90600052602060002001600091509150505481565b600047905090565b600073ffffffffffffffffffffffffffffffffffffffff168373ffffffffffffffffffffffffffffffffffffffff161415610ca9576040517f08c379a0000000000000000000000000000000000000000000000000000000008152600401610ca090612ae4565b60405180910390fd5b3373ffffffffffffffffffffffffffffffffffffffff168373ffffffffffffffffffffffffffffffffffffffff161415610d18576040517f08c379a0000000000000000000000000000000000000000000000000000000008152600401610d0f90612b76565b60405180910390fd5b60008211610d5b576040517f08c379a0000000000000000000000000000000000000000000000000000000008152600401610d5290612c08565b60405180910390fd5b81341015610d9e576040517f08c379a0000000000000000000000000000000000000000000000000000000008152600401610d9590612c74565b60405180910390fd5b60056000815480929190610db190612cc3565b91905055506040518060e0016040528060055481526020013373ffffffffffffffffffffffffffffffffffffffff1681526020018473ffffffffffffffffffffffffffffffffffffffff168152602001838152602001828152602001600015158152602001428152506001600060055481526020019081526020016000206000820151816000015560208201518160010160006101000a81548173ffffffffffffffffffffffffffffffffffffffff021916908373ffffffffffffffffffffffffffffffffffffffff16021790555060408201518160020160006101000a81548173ffffffffffffffffffffffffffffffffffffffff021916908373ffffffffffffffffffffffffffffffffffffffff160217905550606082015181600301556080820151816004019080519060200190610eed929190612025565b5060a08201518160050160006101000a81548160ff02191690831515021790555060c08201518160060155905050600360003373ffffffffffffffffffffffffffffffffffffffff1673ffffffffffffffffffffffffffffffffffffffff1681526020019081526020016000206005549080600181540180825580915050600190039060005260206000200160009091909190915055600360008473ffffffffffffffffffffffffffffffffffffffff1673ffffffffffffffffffffffffffffffffffffffff16815260200190815260200160002060055490806001815401808255809150506001900390600052602060002001600090919091909150558273ffffffffffffffffffffffffffffffffffffffff163373ffffffffffffffffffffffffffffffffffffffff166005547ff03bc2e49a83d942284cb30e1c2935d4b542e1e1e6456d28b5365ddb110a52a28560405161104b91906123bd565b60405180910390a4505050565b600760009054906101000a900473ffffffffffffffffffffffffffffffffffffffff1681565b600760009054906101000a900473ffffffffffffffffffffffffffffffffffffffff1673ffffffffffffffffffffffffffffffffffffffff163373ffffffffffffffffffffffffffffffffffffffff161461110e576040517f08c379a000000000000000000000000000000000000000000000000000000000815260040161110590612d7e565b60405180910390fd5b6103e8811115611153576040517f08c379a000000000000000000000000000000000000000000000000000000000815260040161114a90612dea565b60405180910390fd5b8060088190555050565b806000600260008381526020019081526020016000206000015414156111b8576040517f08c379a00000000000000000000000000000000000000000000000000000000081526004016111af9061285c565b60405180910390fd5b60006002600084815260200190815260200160002090506000600160008360010154815260200190815260200160002090508060010160009054906101000a900473ffffffffffffffffffffffffffffffffffffffff1673ffffffffffffffffffffffffffffffffffffffff163373ffffffffffffffffffffffffffffffffffffffff161461127c576040517f08c379a000000000000000000000000000000000000000000000000000000000815260040161127390612e56565b60405180910390fd5b8160040160029054906101000a900460ff166112cd576040517f08c379a00000000000000000000000000000000000000000000000000000000081526004016112c490612ec2565b60405180910390fd5b8160040160009054906101000a900460ff161561131f576040517f08c379a000000000000000000000000000000000000000000000000000000000815260040161131690612934565b60405180910390fd5b8160040160019054906101000a900460ff1615611371576040517f08c379a0000000000000000000000000000000000000000000000000000000008152600401611368906129a0565b60405180910390fd5b60018260040160006101000a81548160ff0219169083151502179055508160010154847f939da3b627c123c81fe5aacebf925163337a0d4f8a03724640618078cad2489460405160405180910390a36113c984611ca8565b50505050565b60085481565b826001600082815260200190815260200160002060010160009054906101000a900473ffffffffffffffffffffffffffffffffffffffff1673ffffffffffffffffffffffffffffffffffffffff163373ffffffffffffffffffffffffffffffffffffffff1614806114a757506001600082815260200190815260200160002060020160009054906101000a900473ffffffffffffffffffffffffffffffffffffffff1673ffffffffffffffffffffffffffffffffffffffff163373ffffffffffffffffffffffffffffffffffffffff16145b6114e6576040517f08c379a00000000000000000000000000000000000000000000000000000000081526004016114dd90612f54565b60405180910390fd5b83600060016000838152602001908152602001600020600001541415611541576040517f08c379a000000000000000000000000000000000000000000000000000000000815260040161153890612a78565b60405180910390fd5b60006001600087815260200190815260200160002090508060050160009054906101000a900460ff16156115aa576040517f08c379a00000000000000000000000000000000000000000000000000000000081526004016115a190612fc0565b60405180910390fd5b8060010160009054906101000a900473ffffffffffffffffffffffffffffffffffffffff1673ffffffffffffffffffffffffffffffffffffffff163373ffffffffffffffffffffffffffffffffffffffff161461163c576040517f08c379a000000000000000000000000000000000000000000000000000000000815260040161163390613052565b60405180910390fd5b6000841161167f576040517f08c379a0000000000000000000000000000000000000000000000000000000008152600401611676906130e4565b60405180910390fd5b60008060046000898152602001908152602001600020905060005b81805490508110156116fa57600260008383815481106116bd576116bc613104565b5b9060005260206000200154815260200190815260200160002060030154836116e59190613133565b925080806116f290612cc3565b91505061169a565b508260030154868361170c9190613133565b111561174d576040517f08c379a0000000000000000000000000000000000000000000000000000000008152600401611744906131d5565b60405180910390fd5b6006600081548092919061176090612cc3565b91905055506040518060e00160405280600654815260200189815260200188815260200187815260200160001515815260200160001515815260200160001515815250600260006006548152602001908152602001600020600082015181600001556020820151816001015560408201518160020190805190602001906117e8929190612025565b506060820151816003015560808201518160040160006101000a81548160ff02191690831515021790555060a08201518160040160016101000a81548160ff02191690831515021790555060c08201518160040160026101000a81548160ff021916908315150217905550905050600460008981526020019081526020016000206006549080600181540180825580915050600190039060005260206000200160009091909190915055876006547fb59c2d823e6ca395c24829d80f43a97d9c6fd711596372c5a4663af872f4b9d2886040516118c591906123bd565b60405180910390a35050505050505050565b6060600360008373ffffffffffffffffffffffffffffffffffffffff1673ffffffffffffffffffffffffffffffffffffffff16815260200190815260200160002080548060200260200160405190810160405280929190818152602001828054801561196257602002820191906000526020600020905b81548152602001906001019080831161194e575b50505050509050919050565b600260205280600052604060002060009150905080600001549080600101549080600201805461199d906127de565b80601f01602080910402602001604051908101604052809291908181526020018280546119c9906127de565b8015611a165780601f106119eb57610100808354040283529160200191611a16565b820191906000526020600020905b8154815290600101906020018083116119f957829003601f168201915b5050505050908060030154908060040160009054906101000a900460ff16908060040160019054906101000a900460ff16908060040160029054906101000a900460ff16905087565b600080600080606060008087600060016000838152602001908152602001600020600001541415611ac5576040517f08c379a0000000000000000000000000000000000000000000000000000000008152600401611abc90612a78565b60405180910390fd5b6000600160008b81526020019081526020016000206040518060e0016040529081600082015481526020016001820160009054906101000a900473ffffffffffffffffffffffffffffffffffffffff1673ffffffffffffffffffffffffffffffffffffffff1673ffffffffffffffffffffffffffffffffffffffff1681526020016002820160009054906101000a900473ffffffffffffffffffffffffffffffffffffffff1673ffffffffffffffffffffffffffffffffffffffff1673ffffffffffffffffffffffffffffffffffffffff16815260200160038201548152602001600482018054611bb5906127de565b80601f0160208091040260200160405190810160405280929190818152602001828054611be1906127de565b8015611c2e5780601f10611c0357610100808354040283529160200191611c2e565b820191906000526020600020905b815481529060010190602001808311611c1157829003601f168201915b505050505081526020016005820160009054906101000a900460ff161515151581526020016006820154815250509050806000015181602001518260400151836060015184608001518560a001518660c0015198509850985098509850985098505050919395979092949650565b60065481565b60055481565b60006002600083815260200190815260200160002090506000600160008360010154815260200190815260200160002090508160040160009054906101000a900460ff16611d2b576040517f08c379a0000000000000000000000000000000000000000000000000000000008152600401611d2290613241565b60405180910390fd5b8160040160019054906101000a900460ff1615611d7d576040517f08c379a0000000000000000000000000000000000000000000000000000000008152600401611d74906132ad565b60405180910390fd5b60018260040160016101000a81548160ff02191690831515021790555060006127106008548460030154611db191906132cd565b611dbb9190613356565b90506000818460030154611dcf9190613387565b90508260020160009054906101000a900473ffffffffffffffffffffffffffffffffffffffff1673ffffffffffffffffffffffffffffffffffffffff166108fc829081150290604051600060405180830381858888f19350505050158015611e3b573d6000803e3d6000fd5b506000821115611eaf57600760009054906101000a900473ffffffffffffffffffffffffffffffffffffffff1673ffffffffffffffffffffffffffffffffffffffff166108fc839081150290604051600060405180830381858888f19350505050158015611ead573d6000803e3d6000fd5b505b8360010154857f3c70b1e8034b5738ec77fbfdaa4d28906a0b3160018d67a2dc7b534e53e33fe083604051611ee491906123bd565b60405180910390a360006001905060006004600087600101548152602001908152602001600020805480602002602001604051908101604052809291908181526020018280548015611f5557602002820191906000526020600020905b815481526020019060010190808311611f41575b5050505050905060005b8151811015611fc65760026000838381518110611f7f57611f7e613104565b5b6020026020010151815260200190815260200160002060040160019054906101000a900460ff16611fb35760009250611fc6565b8080611fbe90612cc3565b915050611f5f565b50811561201c5760018560050160006101000a81548160ff02191690831515021790555085600101547f60d8df137e489b6216738e436244ca4700bd6d0c8371d3c8d9c80b54538111b960405160405180910390a25b50505050505050565b828054612031906127de565b90600052602060002090601f016020900481019282612053576000855561209a565b82601f1061206c57805160ff191683800117855561209a565b8280016001018555821561209a579182015b8281111561209957825182559160200191906001019061207e565b5b5090506120a791906120ab565b5090565b5b808211156120c45760008160009055506001016120ac565b5090565b6000604051905090565b600080fd5b600080fd5b6000819050919050565b6120ef816120dc565b81146120fa57600080fd5b50565b60008135905061210c816120e6565b92915050565b600060208284031215612128576121276120d2565b5b6000612136848285016120fd565b91505092915050565b612148816120dc565b82525050565b600073ffffffffffffffffffffffffffffffffffffffff82169050919050565b60006121798261214e565b9050919050565b6121898161216e565b82525050565b600081519050919050565b600082825260208201905092915050565b60005b838110156121c95780820151818401526020810190506121ae565b838111156121d8576000848401525b50505050565b6000601f19601f8301169050919050565b60006121fa8261218f565b612204818561219a565b93506122148185602086016121ab565b61221d816121de565b840191505092915050565b60008115159050919050565b61223d81612228565b82525050565b600060e082019050612258600083018a61213f565b6122656020830189612180565b6122726040830188612180565b61227f606083018761213f565b818103608083015261229181866121ef565b90506122a060a0830185612234565b6122ad60c083018461213f565b98975050505050505050565b600060e0820190506122ce600083018a61213f565b6122db602083018961213f565b81810360408301526122ed81886121ef565b90506122fc606083018761213f565b6123096080830186612234565b61231660a0830185612234565b61232360c0830184612234565b98975050505050505050565b6000602082019050818103600083015261234981846121ef565b905092915050565b61235a8161216e565b811461236557600080fd5b50565b60008135905061237781612351565b92915050565b60008060408385031215612394576123936120d2565b5b60006123a285828601612368565b92505060206123b3858286016120fd565b9150509250929050565b60006020820190506123d2600083018461213f565b92915050565b600080fd5b600080fd5b7f4e487b7100000000000000000000000000000000000000000000000000000000600052604160045260246000fd5b61241a826121de565b810181811067ffffffffffffffff82111715612439576124386123e2565b5b80604052505050565b600061244c6120c8565b90506124588282612411565b919050565b600067ffffffffffffffff821115612478576124776123e2565b5b612481826121de565b9050602081019050919050565b82818337600083830152505050565b60006124b06124ab8461245d565b612442565b9050828152602081018484840111156124cc576124cb6123dd565b5b6124d784828561248e565b509392505050565b600082601f8301126124f4576124f36123d8565b5b813561250484826020860161249d565b91505092915050565b60008060408385031215612524576125236120d2565b5b6000612532858286016120fd565b925050602083013567ffffffffffffffff811115612553576125526120d7565b5b61255f858286016124df565b9150509250929050565b600081519050919050565b600082825260208201905092915050565b6000819050602082019050919050565b61259e816120dc565b82525050565b60006125b08383612595565b60208301905092915050565b6000602082019050919050565b60006125d482612569565b6125de8185612574565b93506125e983612585565b8060005b8381101561261a57815161260188826125a4565b975061260c836125bc565b9250506001810190506125ed565b5085935050505092915050565b6000602082019050818103600083015261264181846125c9565b905092915050565b600080604083850312156126605761265f6120d2565b5b600061266e858286016120fd565b925050602061267f858286016120fd565b9150509250929050565b6000806000606084860312156126a2576126a16120d2565b5b60006126b086828701612368565b93505060206126c1868287016120fd565b925050604084013567ffffffffffffffff8111156126e2576126e16120d7565b5b6126ee868287016124df565b9150509250925092565b600060208201905061270d6000830184612180565b92915050565b60008060006060848603121561272c5761272b6120d2565b5b600061273a868287016120fd565b935050602084013567ffffffffffffffff81111561275b5761275a6120d7565b5b612767868287016124df565b9250506040612778868287016120fd565b9150509250925092565b600060208284031215612798576127976120d2565b5b60006127a684828501612368565b91505092915050565b7f4e487b7100000000000000000000000000000000000000000000000000000000600052602260045260246000fd5b600060028204905060018216806127f657607f821691505b6020821081141561280a576128096127af565b5b50919050565b7f4d696c6573746f6e6520646f6573206e6f742065786973740000000000000000600082015250565b600061284660188361219a565b915061285182612810565b602082019050919050565b6000602082019050818103600083015261287581612839565b9050919050565b7f4f6e6c7920667265656c616e6365722063616e207375626d6974000000000000600082015250565b60006128b2601a8361219a565b91506128bd8261287c565b602082019050919050565b600060208201905081810360008301526128e1816128a5565b9050919050565b7f4d696c6573746f6e6520616c726561647920617070726f766564000000000000600082015250565b600061291e601a8361219a565b9150612929826128e8565b602082019050919050565b6000602082019050818103600083015261294d81612911565b9050919050565b7f4d696c6573746f6e6520616c7265616479207061696400000000000000000000600082015250565b600061298a60168361219a565b915061299582612954565b602082019050919050565b600060208201905081810360008301526129b98161297d565b9050919050565b7f416c7265616479207375626d6974746564000000000000000000000000000000600082015250565b60006129f660118361219a565b9150612a01826129c0565b602082019050919050565b60006020820190508181036000830152612a25816129e9565b9050919050565b7f50726f6a65637420646f6573206e6f7420657869737400000000000000000000600082015250565b6000612a6260168361219a565b9150612a6d82612a2c565b602082019050919050565b60006020820190508181036000830152612a9181612a55565b9050919050565b7f496e76616c696420667265656c616e6365722061646472657373000000000000600082015250565b6000612ace601a8361219a565b9150612ad982612a98565b602082019050919050565b60006020820190508181036000830152612afd81612ac1565b9050919050565b7f436c69656e7420616e6420667265656c616e6365722063616e6e6f742062652060008201527f7468652073616d65000000000000000000000000000000000000000000000000602082015250565b6000612b6060288361219a565b9150612b6b82612b04565b604082019050919050565b60006020820190508181036000830152612b8f81612b53565b9050919050565b7f546f74616c20616d6f756e74206d75737420626520677265617465722074686160008201527f6e20300000000000000000000000000000000000000000000000000000000000602082015250565b6000612bf260238361219a565b9150612bfd82612b96565b604082019050919050565b60006020820190508181036000830152612c2181612be5565b9050919050565b7f496e73756666696369656e74207061796d656e7420666f722070726f6a656374600082015250565b6000612c5e60208361219a565b9150612c6982612c28565b602082019050919050565b60006020820190508181036000830152612c8d81612c51565b9050919050565b7f4e487b7100000000000000000000000000000000000000000000000000000000600052601160045260246000fd5b6000612cce826120dc565b91507fffffffffffffffffffffffffffffffffffffffffffffffffffffffffffffffff821415612d0157612d00612c94565b5b600182019050919050565b7f4f6e6c79206f776e65722063616e2063616c6c20746869732066756e6374696f60008201527f6e00000000000000000000000000000000000000000000000000000000000000602082015250565b6000612d6860218361219a565b9150612d7382612d0c565b604082019050919050565b60006020820190508181036000830152612d9781612d5b565b9050919050565b7f4665652063616e6e6f7420657863656564203130250000000000000000000000600082015250565b6000612dd460158361219a565b9150612ddf82612d9e565b602082019050919050565b60006020820190508181036000830152612e0381612dc7565b9050919050565b7f4f6e6c7920636c69656e742063616e20617070726f7665000000000000000000600082015250565b6000612e4060178361219a565b9150612e4b82612e0a565b602082019050919050565b60006020820190508181036000830152612e6f81612e33565b9050919050565b7f4d696c6573746f6e65206e6f74207375626d6974746564207965740000000000600082015250565b6000612eac601b8361219a565b9150612eb782612e76565b602082019050919050565b60006020820190508181036000830152612edb81612e9f565b9050919050565b7f4f6e6c792070726f6a656374207061727469636970616e74732063616e20636160008201527f6c6c20746869732066756e6374696f6e00000000000000000000000000000000602082015250565b6000612f3e60308361219a565b9150612f4982612ee2565b604082019050919050565b60006020820190508181036000830152612f6d81612f31565b9050919050565b7f50726f6a65637420697320636f6d706c65746564000000000000000000000000600082015250565b6000612faa60148361219a565b9150612fb582612f74565b602082019050919050565b60006020820190508181036000830152612fd981612f9d565b9050919050565b7f4f6e6c7920636c69656e742063616e20637265617465206d696c6573746f6e6560008201527f7300000000000000000000000000000000000000000000000000000000000000602082015250565b600061303c60218361219a565b915061304782612fe0565b604082019050919050565b6000602082019050818103600083015261306b8161302f565b9050919050565b7f4d696c6573746f6e6520616d6f756e74206d757374206265206772656174657260008201527f207468616e203000000000000000000000000000000000000000000000000000602082015250565b60006130ce60278361219a565b91506130d982613072565b604082019050919050565b600060208201905081810360008301526130fd816130c1565b9050919050565b7f4e487b7100000000000000000000000000000000000000000000000000000000600052603260045260246000fd5b600061313e826120dc565b9150613149836120dc565b9250827fffffffffffffffffffffffffffffffffffffffffffffffffffffffffffffffff0382111561317e5761317d612c94565b5b828201905092915050565b7f4d696c6573746f6e65732065786365656420746f74616c20616d6f756e740000600082015250565b60006131bf601e8361219a565b91506131ca82613189565b602082019050919050565b600060208201905081810360008301526131ee816131b2565b9050919050565b7f4d696c6573746f6e65206e6f7420617070726f76656400000000000000000000600082015250565b600061322b60168361219a565b9150613236826131f5565b602082019050919050565b6000602082019050818103600083015261325a8161321e565b9050919050565b7f416c726561647920706169640000000000000000000000000000000000000000600082015250565b6000613297600c8361219a565b91506132a282613261565b602082019050919050565b600060208201905081810360008301526132c68161328a565b9050919050565b60006132d8826120dc565b91506132e3836120dc565b9250817fffffffffffffffffffffffffffffffffffffffffffffffffffffffffffffffff048311821515161561331c5761331b612c94565b5b828202905092915050565b7f4e487b7100000000000000000000000000000000000000000000000000000000600052601260045260246000fd5b6000613361826120dc565b915061336c836120dc565b92508261337c5761337b613327565b5b828204905092915050565b6000613392826120dc565b915061339d836120dc565b9250828210156133b0576133af612c94565b5b82820390509291505056fea26469706673582212200c7d07895ae27340e23dea1bd5453a2a18c72d5a9d610c15b72ca416895f776664736f6c634300080a0033",
  "immutableReferences": {},
  "source": "// SPDX-License-Identifier: MIT\r\npragma solidity ^0.8.10;\r\n\r\ncontract Freelancer {\r\n    struct Project {\r\n        uint256 id;\r\n        address client;\r\n        address freelancer;\r\n        uint256 totalAmount;\r\n        string title;\r\n        bool isCompleted;\r\n        uint256 createdAt;\r\n    }\r\n\r\n    struct Milestone {\r\n        uint256 id;\r\n        uint256 projectId;\r\n        string description;\r\n        uint256 amount;\r\n        bool isApproved;\r\n        bool isPaid;\r\n        bool isSubmitted;\r\n    }\r\n\r\n    // New: mapping for milestone submissions (IPFS hashes / URLs)\r\n    mapping(uint256 => string) public milestoneSubmissions;\r\n\r\n    mapping(uint256 => Project) public projects;\r\n    mapping(uint256 => Milestone) public milestones;\r\n    mapping(address => uint256[]) public userProjects;\r\n    mapping(uint256 => uint256[]) public projectMilestones;\r\n\r\n    uint256 public projectCounter;\r\n    uint256 public milestoneCounter;\r\n    address public owner;\r\n    uint256 public platformFeePercentage = 250; // 2.5%\r\n\r\n    // Events\r\n    event ProjectCreated(uint256 indexed projectId, address indexed client, address indexed freelancer, uint256 totalAmount);\r\n    event MilestoneCreated(uint256 indexed milestoneId, uint256 indexed projectId, uint256 amount);\r\n    event MilestoneSubmitted(uint256 indexed milestoneId, uint256 indexed projectId, string submissionHash);\r\n    event MilestoneApproved(uint256 indexed milestoneId, uint256 indexed projectId);\r\n    event PaymentReleased(uint256 indexed milestoneId, uint256 indexed projectId, uint256 amount);\r\n    event ProjectCompleted(uint256 indexed projectId);\r\n\r\n    modifier onlyOwner() {\r\n        require(msg.sender == owner, \"Only owner can call this function\");\r\n        _;\r\n    }\r\n\r\n    modifier onlyProjectParticipant(uint256 _projectId) {\r\n        require(\r\n            msg.sender == projects[_projectId].client ||\r\n            msg.sender == projects[_projectId].freelancer,\r\n            \"Only project participants can call this function\"\r\n        );\r\n        _;\r\n    }\r\n\r\n    modifier projectExists(uint256 _projectId) {\r\n        require(projects[_projectId].id != 0, \"Project does not exist\");\r\n        _;\r\n    }\r\n\r\n    modifier milestoneExists(uint256 _milestoneId) {\r\n        require(milestones[_milestoneId].id != 0, \"Milestone does not exist\");\r\n        _;\r\n    }\r\n\r\n    constructor() {\r\n        owner = msg.sender;\r\n    }\r\n\r\n    // ------------------------------\r\n    // 1 Create Project\r\n    // ------------------------------\r\n    function createProject(\r\n        address _freelancer,\r\n        uint256 _totalAmount,\r\n        string memory _title\r\n    ) external payable {\r\n        require(_freelancer != address(0), \"Invalid freelancer address\");\r\n        require(_freelancer != msg.sender, \"Client and freelancer cannot be the same\");\r\n        require(_totalAmount > 0, \"Total amount must be greater than 0\");\r\n        require(msg.value >= _totalAmount, \"Insufficient payment for project\");\r\n\r\n        projectCounter++;\r\n        projects[projectCounter] = Project({\r\n            id: projectCounter,\r\n            client: msg.sender,\r\n            freelancer: _freelancer,\r\n            totalAmount: _totalAmount,\r\n            title: _title,\r\n            isCompleted: false,\r\n            createdAt: block.timestamp\r\n        });\r\n\r\n        userProjects[msg.sender].push(projectCounter);\r\n        userProjects[_freelancer].push(projectCounter);\r\n\r\n        emit ProjectCreated(projectCounter, msg.sender, _freelancer, _totalAmount);\r\n    }\r\n\r\n    // ------------------------------\r\n    // 2 Create Milestone\r\n    // ------------------------------\r\n    function createMilestone(\r\n        uint256 _projectId,\r\n        string memory _description,\r\n        uint256 _amount\r\n    ) external onlyProjectParticipant(_projectId) projectExists(_projectId) {\r\n        Project storage project = projects[_projectId];\r\n        require(!project.isCompleted, \"Project is completed\");\r\n        require(msg.sender == project.client, \"Only client can create milestones\");\r\n        require(_amount > 0, \"Milestone amount must be greater than 0\");\r\n\r\n        //  Enforce total milestone amount <= project total\r\n        uint256 totalMilestoneAmount = 0;\r\n        uint256[] storage mIds = projectMilestones[_projectId];\r\n        for (uint256 i = 0; i < mIds.length; i++) {\r\n            totalMilestoneAmount += milestones[mIds[i]].amount;\r\n        }\r\n        require(totalMilestoneAmount + _amount <= project.totalAmount, \"Milestones exceed total amount\");\r\n\r\n        milestoneCounter++;\r\n        milestones[milestoneCounter] = Milestone({\r\n            id: milestoneCounter,\r\n            projectId: _projectId,\r\n            description: _description,\r\n            amount: _amount,\r\n            isApproved: false,\r\n            isPaid: false,\r\n            isSubmitted: false\r\n        });\r\n\r\n        projectMilestones[_projectId].push(milestoneCounter);\r\n\r\n        emit MilestoneCreated(milestoneCounter, _projectId, _amount);\r\n    }\r\n\r\n    // ------------------------------\r\n    // 3 Freelancer submits milestone\r\n    // ------------------------------\r\n    function submitMilestone(uint256 _milestoneId, string memory _submissionHash)\r\n        external\r\n        milestoneExists(_milestoneId)\r\n    {\r\n        Milestone storage milestone = milestones[_milestoneId];\r\n        Project storage project = projects[milestone.projectId];\r\n\r\n        require(msg.sender == project.freelancer, \"Only freelancer can submit\");\r\n        require(!milestone.isApproved, \"Milestone already approved\");\r\n        require(!milestone.isPaid, \"Milestone already paid\");\r\n        require(!milestone.isSubmitted, \"Already submitted\");\r\n\r\n        milestone.isSubmitted = true;\r\n        milestoneSubmissions[_milestoneId] = _submissionHash;\r\n\r\n        emit MilestoneSubmitted(_milestoneId, milestone.projectId, _submissionHash);\r\n    }\r\n\r\n    // ------------------------------\r\n    // 4 Client approves milestone\r\n    // ------------------------------\r\n    function approveMilestone(uint256 _milestoneId)\r\n        external\r\n        milestoneExists(_milestoneId)\r\n    {\r\n        Milestone storage milestone = milestones[_milestoneId];\r\n        Project storage project = projects[milestone.projectId];\r\n\r\n        require(msg.sender == project.client, \"Only client can approve\");\r\n        require(milestone.isSubmitted, \"Milestone not submitted yet\");\r\n        require(!milestone.isApproved, \"Milestone already approved\");\r\n        require(!milestone.isPaid, \"Milestone already paid\");\r\n\r\n        milestone.isApproved = true;\r\n        emit MilestoneApproved(_milestoneId, milestone.projectId);\r\n\r\n        _releasePayment(_milestoneId);\r\n    }\r\n\r\n    // ------------------------------\r\n    // 5 Payment Release\r\n    // ------------------------------\r\n    function _releasePayment(uint256 _milestoneId) internal {\r\n        Milestone storage milestone = milestones[_milestoneId];\r\n        Project storage project = projects[milestone.projectId];\r\n\r\n        require(milestone.isApproved, \"Milestone not approved\");\r\n        require(!milestone.isPaid, \"Already paid\");\r\n\r\n        milestone.isPaid = true;\r\n\r\n        uint256 platformFee = (milestone.amount * platformFeePercentage) / 10000;\r\n        uint256 freelancerAmount = milestone.amount - platformFee;\r\n\r\n        payable(project.freelancer).transfer(freelancerAmount);\r\n        if (platformFee > 0) payable(owner).transfer(platformFee);\r\n\r\n        emit PaymentReleased(_milestoneId, milestone.projectId, freelancerAmount);\r\n\r\n        // Check if all milestones paid\r\n        bool allPaid = true;\r\n        uint256[] memory mIds = projectMilestones[milestone.projectId];\r\n        for (uint256 i = 0; i < mIds.length; i++) {\r\n            if (!milestones[mIds[i]].isPaid) {\r\n                allPaid = false;\r\n                break;\r\n            }\r\n        }\r\n\r\n        if (allPaid) {\r\n            project.isCompleted = true;\r\n            emit ProjectCompleted(milestone.projectId);\r\n        }\r\n    }\r\n\r\n    // ------------------------------\r\n    // 6 View Functions\r\n    // ------------------------------\r\n    function getProject(uint256 _projectId) external view projectExists(_projectId) returns (\r\n        uint256 id,\r\n        address client,\r\n        address freelancer,\r\n        uint256 totalAmount,\r\n        string memory title,\r\n        bool isCompleted,\r\n        uint256 createdAt\r\n    ) {\r\n        Project memory project = projects[_projectId];\r\n        return (\r\n            project.id,\r\n            project.client,\r\n            project.freelancer,\r\n            project.totalAmount,\r\n            project.title,\r\n            project.isCompleted,\r\n            project.createdAt\r\n        );\r\n    }\r\n\r\n    function getMilestone(uint256 _milestoneId) external view milestoneExists(_milestoneId) returns (\r\n        uint256 id,\r\n        uint256 projectId,\r\n        string memory description,\r\n        uint256 amount,\r\n        bool isApproved,\r\n        bool isPaid,\r\n        bool isSubmitted\r\n    ) {\r\n        Milestone memory milestone = milestones[_milestoneId];\r\n        return (\r\n            milestone.id,\r\n            milestone.projectId,\r\n            milestone.description,\r\n            milestone.amount,\r\n            milestone.isApproved,\r\n            milestone.isPaid,\r\n            milestone.isSubmitted\r\n        );\r\n    }\r\n\r\n    function getUserProjects(address _user) external view returns (uint256[] memory) {\r\n        return userProjects[_user];\r\n    }\r\n\r\n    function getProjectMilestones(uint256 _projectId) external view projectExists(_projectId) returns (uint256[] memory) {\r\n        return projectMilestones[_projectId];\r\n    }\r\n\r\n    // ------------------------------\r\n    // 7 Admin Utilities\r\n    // ------------------------------\r\n    function updatePlatformFee(uint256 _newFee) external onlyOwner {\r\n        require(_newFee <= 1000, \"Fee cannot exceed 10%\");\r\n        platformFeePercentage = _newFee;\r\n    }\r\n\r\n    function getContractBalance() external view returns (uint256) {\r\n        return address(this).balance;\r\n    }\r\n}\r\n",
  "sourcePath": "D:\\Freelancer\\contracts\\Freelancer.sol",
  "compiler": {
    "name": "solc",
    "version": "0.8.10+commit.fc410830.Emscripten.clang"
  },
  "schemaVersion": "3.4.16",
  "updatedAt": "2025-10-30T23:49:08.127Z",
  "devdoc": {
    "kind": "dev",
    "methods": {},
    "version": 1
  },
  "userdoc": {
    "kind": "user",
    "methods": {},
    "version": 1
  }
}