{
  "contractName": "Freelancer",
  "abi": [
    {
      "inputs": [],
      "stateMutability": "nonpayable",
      "type": "constructor"
    },
    {
      "anonymous": false,
      "inputs": [
        {
          "indexed": true,
          "internalType": "uint256",
          "name": "milestoneId",
          "type": "uint256"
        },
        {
          "indexed": true,
          "internalType": "uint256",
          "name": "projectId",
          "type": "uint256"
        }
      ],
      "name": "MilestoneApproved",
      "type": "event"
    },
    {
      "anonymous": false,
      "inputs": [
        {
          "indexed": true,
          "internalType": "uint256",
          "name": "milestoneId",
          "type": "uint256"
        },
        {
          "indexed": true,
          "internalType": "uint256",
          "name": "projectId",
          "type": "uint256"
        },
        {
          "indexed": false,
          "internalType": "uint256",
          "name": "amount",
          "type": "uint256"
        }
      ],
      "name": "MilestoneCreated",
      "type": "event"
    },
    {
      "anonymous": false,
      "inputs": [
        {
          "indexed": true,
          "internalType": "uint256",
          "name": "milestoneId",
          "type": "uint256"
        },
        {
          "indexed": true,
          "internalType": "uint256",
          "name": "projectId",
          "type": "uint256"
        },
        {
          "indexed": false,
          "internalType": "string",
          "name": "submissionHash",
          "type": "string"
        }
      ],
      "name": "MilestoneSubmitted",
      "type": "event"
    },
    {
      "anonymous": false,
      "inputs": [
        {
          "indexed": true,
          "internalType": "uint256",
          "name": "milestoneId",
          "type": "uint256"
        },
        {
          "indexed": true,
          "internalType": "uint256",
          "name": "projectId",
          "type": "uint256"
        },
        {
          "indexed": false,
          "internalType": "uint256",
          "name": "amount",
          "type": "uint256"
        }
      ],
      "name": "PaymentReleased",
      "type": "event"
    },
    {
      "anonymous": false,
      "inputs": [
        {
          "indexed": true,
          "internalType": "uint256",
          "name": "projectId",
          "type": "uint256"
        }
      ],
      "name": "ProjectCompleted",
      "type": "event"
    },
    {
      "anonymous": false,
      "inputs": [
        {
          "indexed": true,
          "internalType": "uint256",
          "name": "projectId",
          "type": "uint256"
        },
        {
          "indexed": true,
          "internalType": "address",
          "name": "client",
          "type": "address"
        },
        {
          "indexed": true,
          "internalType": "address",
          "name": "freelancer",
          "type": "address"
        },
        {
          "indexed": false,
          "internalType": "uint256",
          "name": "totalAmount",
          "type": "uint256"
        }
      ],
      "name": "ProjectCreated",
      "type": "event"
    },
    {
      "inputs": [],
      "name": "milestoneCounter",
      "outputs": [
        {
          "internalType": "uint256",
          "name": "",
          "type": "uint256"
        }
      ],
      "stateMutability": "view",
      "type": "function",
      "constant": true
    },
    {
      "inputs": [
        {
          "internalType": "uint256",
          "name": "",
          "type": "uint256"
        }
      ],
      "name": "milestones",
      "outputs": [
        {
          "internalType": "uint256",
          "name": "id",
          "type": "uint256"
        },
        {
          "internalType": "uint256",
          "name": "projectId",
          "type": "uint256"
        },
        {
          "internalType": "string",
          "name": "description",
          "type": "string"
        },
        {
          "internalType": "uint256",
          "name": "amount",
          "type": "uint256"
        },
        {
          "internalType": "bool",
          "name": "isApproved",
          "type": "bool"
        },
        {
          "internalType": "bool",
          "name": "isPaid",
          "type": "bool"
        }
      ],
      "stateMutability": "view",
      "type": "function",
      "constant": true
    },
    {
      "inputs": [
        {
          "internalType": "uint256",
          "name": "",
          "type": "uint256"
        }
      ],
      "name": "milestoneSubmissions",
      "outputs": [
        {
          "internalType": "string",
          "name": "",
          "type": "string"
        }
      ],
      "stateMutability": "view",
      "type": "function",
      "constant": true
    },
    {
      "inputs": [],
      "name": "owner",
      "outputs": [
        {
          "internalType": "address",
          "name": "",
          "type": "address"
        }
      ],
      "stateMutability": "view",
      "type": "function",
      "constant": true
    },
    {
      "inputs": [],
      "name": "platformFeePercentage",
      "outputs": [
        {
          "internalType": "uint256",
          "name": "",
          "type": "uint256"
        }
      ],
      "stateMutability": "view",
      "type": "function",
      "constant": true
    },
    {
      "inputs": [],
      "name": "projectCounter",
      "outputs": [
        {
          "internalType": "uint256",
          "name": "",
          "type": "uint256"
        }
      ],
      "stateMutability": "view",
      "type": "function",
      "constant": true
    },
    {
      "inputs": [
        {
          "internalType": "uint256",
          "name": "",
          "type": "uint256"
        },
        {
          "internalType": "uint256",
          "name": "",
          "type": "uint256"
        }
      ],
      "name": "projectMilestones",
      "outputs": [
        {
          "internalType": "uint256",
          "name": "",
          "type": "uint256"
        }
      ],
      "stateMutability": "view",
      "type": "function",
      "constant": true
    },
    {
      "inputs": [
        {
          "internalType": "uint256",
          "name": "",
          "type": "uint256"
        }
      ],
      "name": "projects",
      "outputs": [
        {
          "internalType": "uint256",
          "name": "id",
          "type": "uint256"
        },
        {
          "internalType": "address",
          "name": "client",
          "type": "address"
        },
        {
          "internalType": "address",
          "name": "freelancer",
          "type": "address"
        },
        {
          "internalType": "uint256",
          "name": "totalAmount",
          "type": "uint256"
        },
        {
          "internalType": "string",
          "name": "title",
          "type": "string"
        },
        {
          "internalType": "bool",
          "name": "isCompleted",
          "type": "bool"
        },
        {
          "internalType": "uint256",
          "name": "createdAt",
          "type": "uint256"
        }
      ],
      "stateMutability": "view",
      "type": "function",
      "constant": true
    },
    {
      "inputs": [
        {
          "internalType": "address",
          "name": "",
          "type": "address"
        },
        {
          "internalType": "uint256",
          "name": "",
          "type": "uint256"
        }
      ],
      "name": "userProjects",
      "outputs": [
        {
          "internalType": "uint256",
          "name": "",
          "type": "uint256"
        }
      ],
      "stateMutability": "view",
      "type": "function",
      "constant": true
    },
    {
      "inputs": [
        {
          "internalType": "address",
          "name": "_freelancer",
          "type": "address"
        },
        {
          "internalType": "uint256",
          "name": "_totalAmount",
          "type": "uint256"
        },
        {
          "internalType": "string",
          "name": "_title",
          "type": "string"
        }
      ],
      "name": "createProject",
      "outputs": [],
      "stateMutability": "payable",
      "type": "function",
      "payable": true
    },
    {
      "inputs": [
        {
          "internalType": "uint256",
          "name": "_projectId",
          "type": "uint256"
        },
        {
          "internalType": "string",
          "name": "_description",
          "type": "string"
        },
        {
          "internalType": "uint256",
          "name": "_amount",
          "type": "uint256"
        }
      ],
      "name": "createMilestone",
      "outputs": [],
      "stateMutability": "nonpayable",
      "type": "function"
    },
    {
      "inputs": [
        {
          "internalType": "uint256",
          "name": "_milestoneId",
          "type": "uint256"
        },
        {
          "internalType": "string",
          "name": "_submissionHash",
          "type": "string"
        }
      ],
      "name": "submitMilestone",
      "outputs": [],
      "stateMutability": "nonpayable",
      "type": "function"
    },
    {
      "inputs": [
        {
          "internalType": "uint256",
          "name": "_milestoneId",
          "type": "uint256"
        }
      ],
      "name": "approveMilestone",
      "outputs": [],
      "stateMutability": "nonpayable",
      "type": "function"
    },
    {
      "inputs": [
        {
          "internalType": "uint256",
          "name": "_projectId",
          "type": "uint256"
        }
      ],
      "name": "completeProject",
      "outputs": [],
      "stateMutability": "nonpayable",
      "type": "function"
    },
    {
      "inputs": [
        {
          "internalType": "uint256",
          "name": "_projectId",
          "type": "uint256"
        }
      ],
      "name": "getProject",
      "outputs": [
        {
          "internalType": "uint256",
          "name": "id",
          "type": "uint256"
        },
        {
          "internalType": "address",
          "name": "client",
          "type": "address"
        },
        {
          "internalType": "address",
          "name": "freelancer",
          "type": "address"
        },
        {
          "internalType": "uint256",
          "name": "totalAmount",
          "type": "uint256"
        },
        {
          "internalType": "string",
          "name": "title",
          "type": "string"
        },
        {
          "internalType": "bool",
          "name": "isCompleted",
          "type": "bool"
        },
        {
          "internalType": "uint256",
          "name": "createdAt",
          "type": "uint256"
        }
      ],
      "stateMutability": "view",
      "type": "function",
      "constant": true
    },
    {
      "inputs": [
        {
          "internalType": "uint256",
          "name": "_milestoneId",
          "type": "uint256"
        }
      ],
      "name": "getMilestone",
      "outputs": [
        {
          "internalType": "uint256",
          "name": "id",
          "type": "uint256"
        },
        {
          "internalType": "uint256",
          "name": "projectId",
          "type": "uint256"
        },
        {
          "internalType": "string",
          "name": "description",
          "type": "string"
        },
        {
          "internalType": "uint256",
          "name": "amount",
          "type": "uint256"
        },
        {
          "internalType": "bool",
          "name": "isApproved",
          "type": "bool"
        },
        {
          "internalType": "bool",
          "name": "isPaid",
          "type": "bool"
        }
      ],
      "stateMutability": "view",
      "type": "function",
      "constant": true
    },
    {
      "inputs": [
        {
          "internalType": "address",
          "name": "_user",
          "type": "address"
        }
      ],
      "name": "getUserProjects",
      "outputs": [
        {
          "internalType": "uint256[]",
          "name": "",
          "type": "uint256[]"
        }
      ],
      "stateMutability": "view",
      "type": "function",
      "constant": true
    },
    {
      "inputs": [
        {
          "internalType": "uint256",
          "name": "_projectId",
          "type": "uint256"
        }
      ],
      "name": "getProjectMilestones",
      "outputs": [
        {
          "internalType": "uint256[]",
          "name": "",
          "type": "uint256[]"
        }
      ],
      "stateMutability": "view",
      "type": "function",
      "constant": true
    },
    {
      "inputs": [
        {
          "internalType": "uint256",
          "name": "_newFeePercentage",
          "type": "uint256"
        }
      ],
      "name": "updatePlatformFee",
      "outputs": [],
      "stateMutability": "nonpayable",
      "type": "function"
    },
    {
      "inputs": [],
      "name": "getContractBalance",
      "outputs": [
        {
          "internalType": "uint256",
          "name": "",
          "type": "uint256"
        }
      ],
      "stateMutability": "view",
      "type": "function",
      "constant": true
    }
  ],
  "bytecode": "0x608060405260fa60075534801561001557600080fd5b5033600660006101000a81548173ffffffffffffffffffffffffffffffffffffffff021916908373ffffffffffffffffffffffffffffffffffffffff160217905550612eed806100666000396000f3fe6080604052600436106101095760003560e01c8063aa0b598811610095578063e32e723c11610064578063e32e723c1461038b578063e89e4ed6146103c8578063f0f3f2c81461040a578063f6baaec71461044d578063f8a518ed1461047857610109565b8063aa0b5988146102e5578063c438b40f1461030e578063cdd78cfc14610337578063da13b0d31461036257610109565b806352766d80116100dc57806352766d80146101f95780636cb0adba146102365780636f9fb98a1461027357806387f4d7321461029e5780638da5cb5b146102ba57610109565b8063107046bd1461010e5780632245f152146101515780632442e1cb1461017a5780632fa9c007146101bc575b600080fd5b34801561011a57600080fd5b5061013560048036038101906101309190611da2565b6104a3565b6040516101489796959493929190611ed3565b60405180910390f35b34801561015d57600080fd5b5061017860048036038101906101739190611da2565b6105ba565b005b34801561018657600080fd5b506101a1600480360381019061019c9190611da2565b61075d565b6040516101b396959493929190611f49565b60405180910390f35b3480156101c857600080fd5b506101e360048036038101906101de9190611fdd565b6108ff565b6040516101f0919061201d565b60405180910390f35b34801561020557600080fd5b50610220600480360381019061021b9190611da2565b610930565b60405161022d91906120f6565b60405180910390f35b34801561024257600080fd5b5061025d60048036038101906102589190612118565b6109f6565b60405161026a919061201d565b60405180910390f35b34801561027f57600080fd5b50610288610a27565b604051610295919061201d565b60405180910390f35b6102b860048036038101906102b3919061228d565b610a2f565b005b3480156102c657600080fd5b506102cf610e4d565b6040516102dc91906122fc565b60405180910390f35b3480156102f157600080fd5b5061030c60048036038101906103079190611da2565b610e73565b005b34801561031a57600080fd5b5061033560048036038101906103309190611da2565b610f52565b005b34801561034357600080fd5b5061034c611172565b604051610359919061201d565b60405180910390f35b34801561036e57600080fd5b5061038960048036038101906103849190612317565b611178565b005b34801561039757600080fd5b506103b260048036038101906103ad9190612386565b61157d565b6040516103bf91906120f6565b60405180910390f35b3480156103d457600080fd5b506103ef60048036038101906103ea9190611da2565b611614565b60405161040196959493929190611f49565b60405180910390f35b34801561041657600080fd5b50610431600480360381019061042c9190611da2565b6116f2565b6040516104449796959493929190611ed3565b60405180910390f35b34801561045957600080fd5b5061046261192d565b60405161046f919061201d565b60405180910390f35b34801561048457600080fd5b5061048d611933565b60405161049a919061201d565b60405180910390f35b60006020528060005260406000206000915090508060000154908060010160009054906101000a900473ffffffffffffffffffffffffffffffffffffffff16908060020160009054906101000a900473ffffffffffffffffffffffffffffffffffffffff169080600301549080600401805461051e906123e2565b80601f016020809104026020016040519081016040528092919081815260200182805461054a906123e2565b80156105975780601f1061056c57610100808354040283529160200191610597565b820191906000526020600020905b81548152906001019060200180831161057a57829003601f168201915b5050505050908060050160009054906101000a900460ff16908060060154905087565b806000806000838152602001908152602001600020600001541415610614576040517f08c379a000000000000000000000000000000000000000000000000000000000815260040161060b90612460565b60405180910390fd5b600080600084815260200190815260200160002090508060010160009054906101000a900473ffffffffffffffffffffffffffffffffffffffff1673ffffffffffffffffffffffffffffffffffffffff163373ffffffffffffffffffffffffffffffffffffffff16146106bc576040517f08c379a00000000000000000000000000000000000000000000000000000000081526004016106b3906124cc565b60405180910390fd5b8060050160009054906101000a900460ff161561070e576040517f08c379a000000000000000000000000000000000000000000000000000000000815260040161070590612538565b60405180910390fd5b60018160050160006101000a81548160ff021916908315150217905550827f60d8df137e489b6216738e436244ca4700bd6d0c8371d3c8d9c80b54538111b960405160405180910390a2505050565b60008060606000806000866000600160008381526020019081526020016000206000015414156107c2576040517f08c379a00000000000000000000000000000000000000000000000000000000081526004016107b9906125a4565b60405180910390fd5b6000600160008a81526020019081526020016000206040518060c00160405290816000820154815260200160018201548152602001600282018054610806906123e2565b80601f0160208091040260200160405190810160405280929190818152602001828054610832906123e2565b801561087f5780601f106108545761010080835404028352916020019161087f565b820191906000526020600020905b81548152906001019060200180831161086257829003601f168201915b50505050508152602001600382015481526020016004820160009054906101000a900460ff161515151581526020016004820160019054906101000a900460ff1615151515815250509050806000015181602001518260400151836060015184608001518560a00151975097509750975097509750505091939550919395565b6002602052816000526040600020818154811061091b57600080fd5b90600052602060002001600091509150505481565b606081600080600083815260200190815260200160002060000154141561098c576040517f08c379a000000000000000000000000000000000000000000000000000000000815260040161098390612460565b60405180910390fd5b600360008481526020019081526020016000208054806020026020016040519081016040528092919081815260200182805480156109e957602002820191906000526020600020905b8154815260200190600101908083116109d5575b5050505050915050919050565b60036020528160005260406000208181548110610a1257600080fd5b90600052602060002001600091509150505481565b600047905090565b600073ffffffffffffffffffffffffffffffffffffffff168373ffffffffffffffffffffffffffffffffffffffff161415610a9f576040517f08c379a0000000000000000000000000000000000000000000000000000000008152600401610a9690612610565b60405180910390fd5b3373ffffffffffffffffffffffffffffffffffffffff168373ffffffffffffffffffffffffffffffffffffffff161415610b0e576040517f08c379a0000000000000000000000000000000000000000000000000000000008152600401610b05906126a2565b60405180910390fd5b60008211610b51576040517f08c379a0000000000000000000000000000000000000000000000000000000008152600401610b4890612734565b60405180910390fd5b81341015610b94576040517f08c379a0000000000000000000000000000000000000000000000000000000008152600401610b8b906127a0565b60405180910390fd5b60046000815480929190610ba7906127ef565b91905055506040518060e0016040528060045481526020013373ffffffffffffffffffffffffffffffffffffffff1681526020018473ffffffffffffffffffffffffffffffffffffffff1681526020018381526020018281526020016000151581526020014281525060008060045481526020019081526020016000206000820151816000015560208201518160010160006101000a81548173ffffffffffffffffffffffffffffffffffffffff021916908373ffffffffffffffffffffffffffffffffffffffff16021790555060408201518160020160006101000a81548173ffffffffffffffffffffffffffffffffffffffff021916908373ffffffffffffffffffffffffffffffffffffffff160217905550606082015181600301556080820151816004019080519060200190610ce2929190611cb5565b5060a08201518160050160006101000a81548160ff02191690831515021790555060c08201518160060155905050600260003373ffffffffffffffffffffffffffffffffffffffff1673ffffffffffffffffffffffffffffffffffffffff1681526020019081526020016000206004549080600181540180825580915050600190039060005260206000200160009091909190915055600260008473ffffffffffffffffffffffffffffffffffffffff1673ffffffffffffffffffffffffffffffffffffffff16815260200190815260200160002060045490806001815401808255809150506001900390600052602060002001600090919091909150558273ffffffffffffffffffffffffffffffffffffffff163373ffffffffffffffffffffffffffffffffffffffff166004547ff03bc2e49a83d942284cb30e1c2935d4b542e1e1e6456d28b5365ddb110a52a285604051610e40919061201d565b60405180910390a4505050565b600660009054906101000a900473ffffffffffffffffffffffffffffffffffffffff1681565b600660009054906101000a900473ffffffffffffffffffffffffffffffffffffffff1673ffffffffffffffffffffffffffffffffffffffff163373ffffffffffffffffffffffffffffffffffffffff1614610f03576040517f08c379a0000000000000000000000000000000000000000000000000000000008152600401610efa906128aa565b60405180910390fd5b6103e8811115610f48576040517f08c379a0000000000000000000000000000000000000000000000000000000008152600401610f3f90612916565b60405180910390fd5b8060078190555050565b80600060016000838152602001908152602001600020600001541415610fad576040517f08c379a0000000000000000000000000000000000000000000000000000000008152600401610fa4906125a4565b60405180910390fd5b600060016000848152602001908152602001600020905060008060008360010154815260200190815260200160002090508060010160009054906101000a900473ffffffffffffffffffffffffffffffffffffffff1673ffffffffffffffffffffffffffffffffffffffff163373ffffffffffffffffffffffffffffffffffffffff1614611070576040517f08c379a0000000000000000000000000000000000000000000000000000000008152600401611067906129a8565b60405180910390fd5b8160040160009054906101000a900460ff16156110c2576040517f08c379a00000000000000000000000000000000000000000000000000000000081526004016110b990612a14565b60405180910390fd5b8160040160019054906101000a900460ff1615611114576040517f08c379a000000000000000000000000000000000000000000000000000000000815260040161110b90612a80565b60405180910390fd5b60018260040160006101000a81548160ff0219169083151502179055508160010154847f939da3b627c123c81fe5aacebf925163337a0d4f8a03724640618078cad2489460405160405180910390a361116c84611939565b50505050565b60075481565b8260008082815260200190815260200160002060010160009054906101000a900473ffffffffffffffffffffffffffffffffffffffff1673ffffffffffffffffffffffffffffffffffffffff163373ffffffffffffffffffffffffffffffffffffffff161480611248575060008082815260200190815260200160002060020160009054906101000a900473ffffffffffffffffffffffffffffffffffffffff1673ffffffffffffffffffffffffffffffffffffffff163373ffffffffffffffffffffffffffffffffffffffff16145b611287576040517f08c379a000000000000000000000000000000000000000000000000000000000815260040161127e90612b12565b60405180910390fd5b8360008060008381526020019081526020016000206000015414156112e1576040517f08c379a00000000000000000000000000000000000000000000000000000000081526004016112d890612460565b60405180910390fd5b600080600087815260200190815260200160002090508060050160009054906101000a900460ff1615611349576040517f08c379a000000000000000000000000000000000000000000000000000000000815260040161134090612b7e565b60405180910390fd5b8060010160009054906101000a900473ffffffffffffffffffffffffffffffffffffffff1673ffffffffffffffffffffffffffffffffffffffff163373ffffffffffffffffffffffffffffffffffffffff16146113db576040517f08c379a00000000000000000000000000000000000000000000000000000000081526004016113d290612c10565b60405180910390fd5b6000841161141e576040517f08c379a000000000000000000000000000000000000000000000000000000000815260040161141590612ca2565b60405180910390fd5b60056000815480929190611431906127ef565b91905055506040518060c00160405280600554815260200187815260200186815260200185815260200160001515815260200160001515815250600160006005548152602001908152602001600020600082015181600001556020820151816001015560408201518160020190805190602001906114b0929190611cb5565b506060820151816003015560808201518160040160006101000a81548160ff02191690831515021790555060a08201518160040160016101000a81548160ff021916908315150217905550905050600360008781526020019081526020016000206005549080600181540180825580915050600190039060005260206000200160009091909190915055856005547fb59c2d823e6ca395c24829d80f43a97d9c6fd711596372c5a4663af872f4b9d28660405161156d919061201d565b60405180910390a3505050505050565b6060600260008373ffffffffffffffffffffffffffffffffffffffff1673ffffffffffffffffffffffffffffffffffffffff16815260200190815260200160002080548060200260200160405190810160405280929190818152602001828054801561160857602002820191906000526020600020905b8154815260200190600101908083116115f4575b50505050509050919050565b6001602052806000526040600020600091509050806000015490806001015490806002018054611643906123e2565b80601f016020809104026020016040519081016040528092919081815260200182805461166f906123e2565b80156116bc5780601f10611691576101008083540402835291602001916116bc565b820191906000526020600020905b81548152906001019060200180831161169f57829003601f168201915b5050505050908060030154908060040160009054906101000a900460ff16908060040160019054906101000a900460ff16905086565b6000806000806060600080876000806000838152602001908152602001600020600001541415611757576040517f08c379a000000000000000000000000000000000000000000000000000000000815260040161174e90612460565b60405180910390fd5b60008060008b81526020019081526020016000206040518060e0016040529081600082015481526020016001820160009054906101000a900473ffffffffffffffffffffffffffffffffffffffff1673ffffffffffffffffffffffffffffffffffffffff1673ffffffffffffffffffffffffffffffffffffffff1681526020016002820160009054906101000a900473ffffffffffffffffffffffffffffffffffffffff1673ffffffffffffffffffffffffffffffffffffffff1673ffffffffffffffffffffffffffffffffffffffff16815260200160038201548152602001600482018054611846906123e2565b80601f0160208091040260200160405190810160405280929190818152602001828054611872906123e2565b80156118bf5780601f10611894576101008083540402835291602001916118bf565b820191906000526020600020905b8154815290600101906020018083116118a257829003601f168201915b505050505081526020016005820160009054906101000a900460ff161515151581526020016006820154815250509050806000015181602001518260400151836060015184608001518560a001518660c0015198509850985098509850985098505050919395979092949650565b60055481565b60045481565b600060016000838152602001908152602001600020905060008060008360010154815260200190815260200160002090508160040160009054906101000a900460ff166119bb576040517f08c379a00000000000000000000000000000000000000000000000000000000081526004016119b290612d0e565b60405180910390fd5b8160040160019054906101000a900460ff1615611a0d576040517f08c379a0000000000000000000000000000000000000000000000000000000008152600401611a0490612d7a565b60405180910390fd5b60018260040160016101000a81548160ff02191690831515021790555060006127106007548460030154611a419190612d9a565b611a4b9190612e23565b90506000818460030154611a5f9190612e54565b90508260020160009054906101000a900473ffffffffffffffffffffffffffffffffffffffff1673ffffffffffffffffffffffffffffffffffffffff166108fc829081150290604051600060405180830381858888f19350505050158015611acb573d6000803e3d6000fd5b506000821115611b3f57600660009054906101000a900473ffffffffffffffffffffffffffffffffffffffff1673ffffffffffffffffffffffffffffffffffffffff166108fc839081150290604051600060405180830381858888f19350505050158015611b3d573d6000803e3d6000fd5b505b8360010154857f3c70b1e8034b5738ec77fbfdaa4d28906a0b3160018d67a2dc7b534e53e33fe083604051611b74919061201d565b60405180910390a360006001905060006003600087600101548152602001908152602001600020805480602002602001604051908101604052809291908181526020018280548015611be557602002820191906000526020600020905b815481526020019060010190808311611bd1575b5050505050905060005b8151811015611c565760016000838381518110611c0f57611c0e612e88565b5b6020026020010151815260200190815260200160002060040160019054906101000a900460ff16611c435760009250611c56565b8080611c4e906127ef565b915050611bef565b508115611cac5760018560050160006101000a81548160ff02191690831515021790555085600101547f60d8df137e489b6216738e436244ca4700bd6d0c8371d3c8d9c80b54538111b960405160405180910390a25b50505050505050565b828054611cc1906123e2565b90600052602060002090601f016020900481019282611ce35760008555611d2a565b82601f10611cfc57805160ff1916838001178555611d2a565b82800160010185558215611d2a579182015b82811115611d29578251825591602001919060010190611d0e565b5b509050611d379190611d3b565b5090565b5b80821115611d54576000816000905550600101611d3c565b5090565b6000604051905090565b600080fd5b600080fd5b6000819050919050565b611d7f81611d6c565b8114611d8a57600080fd5b50565b600081359050611d9c81611d76565b92915050565b600060208284031215611db857611db7611d62565b5b6000611dc684828501611d8d565b91505092915050565b611dd881611d6c565b82525050565b600073ffffffffffffffffffffffffffffffffffffffff82169050919050565b6000611e0982611dde565b9050919050565b611e1981611dfe565b82525050565b600081519050919050565b600082825260208201905092915050565b60005b83811015611e59578082015181840152602081019050611e3e565b83811115611e68576000848401525b50505050565b6000601f19601f8301169050919050565b6000611e8a82611e1f565b611e948185611e2a565b9350611ea4818560208601611e3b565b611ead81611e6e565b840191505092915050565b60008115159050919050565b611ecd81611eb8565b82525050565b600060e082019050611ee8600083018a611dcf565b611ef56020830189611e10565b611f026040830188611e10565b611f0f6060830187611dcf565b8181036080830152611f218186611e7f565b9050611f3060a0830185611ec4565b611f3d60c0830184611dcf565b98975050505050505050565b600060c082019050611f5e6000830189611dcf565b611f6b6020830188611dcf565b8181036040830152611f7d8187611e7f565b9050611f8c6060830186611dcf565b611f996080830185611ec4565b611fa660a0830184611ec4565b979650505050505050565b611fba81611dfe565b8114611fc557600080fd5b50565b600081359050611fd781611fb1565b92915050565b60008060408385031215611ff457611ff3611d62565b5b600061200285828601611fc8565b925050602061201385828601611d8d565b9150509250929050565b60006020820190506120326000830184611dcf565b92915050565b600081519050919050565b600082825260208201905092915050565b6000819050602082019050919050565b61206d81611d6c565b82525050565b600061207f8383612064565b60208301905092915050565b6000602082019050919050565b60006120a382612038565b6120ad8185612043565b93506120b883612054565b8060005b838110156120e95781516120d08882612073565b97506120db8361208b565b9250506001810190506120bc565b5085935050505092915050565b600060208201905081810360008301526121108184612098565b905092915050565b6000806040838503121561212f5761212e611d62565b5b600061213d85828601611d8d565b925050602061214e85828601611d8d565b9150509250929050565b600080fd5b600080fd5b7f4e487b7100000000000000000000000000000000000000000000000000000000600052604160045260246000fd5b61219a82611e6e565b810181811067ffffffffffffffff821117156121b9576121b8612162565b5b80604052505050565b60006121cc611d58565b90506121d88282612191565b919050565b600067ffffffffffffffff8211156121f8576121f7612162565b5b61220182611e6e565b9050602081019050919050565b82818337600083830152505050565b600061223061222b846121dd565b6121c2565b90508281526020810184848401111561224c5761224b61215d565b5b61225784828561220e565b509392505050565b600082601f83011261227457612273612158565b5b813561228484826020860161221d565b91505092915050565b6000806000606084860312156122a6576122a5611d62565b5b60006122b486828701611fc8565b93505060206122c586828701611d8d565b925050604084013567ffffffffffffffff8111156122e6576122e5611d67565b5b6122f28682870161225f565b9150509250925092565b60006020820190506123116000830184611e10565b92915050565b6000806000606084860312156123305761232f611d62565b5b600061233e86828701611d8d565b935050602084013567ffffffffffffffff81111561235f5761235e611d67565b5b61236b8682870161225f565b925050604061237c86828701611d8d565b9150509250925092565b60006020828403121561239c5761239b611d62565b5b60006123aa84828501611fc8565b91505092915050565b7f4e487b7100000000000000000000000000000000000000000000000000000000600052602260045260246000fd5b600060028204905060018216806123fa57607f821691505b6020821081141561240e5761240d6123b3565b5b50919050565b7f50726f6a65637420646f6573206e6f7420657869737400000000000000000000600082015250565b600061244a601683611e2a565b915061245582612414565b602082019050919050565b600060208201905081810360008301526124798161243d565b9050919050565b7f4f6e6c7920636c69656e742063616e20636f6d706c6574652070726f6a656374600082015250565b60006124b6602083611e2a565b91506124c182612480565b602082019050919050565b600060208201905081810360008301526124e5816124a9565b9050919050565b7f50726f6a65637420616c726561647920636f6d706c6574656400000000000000600082015250565b6000612522601983611e2a565b915061252d826124ec565b602082019050919050565b6000602082019050818103600083015261255181612515565b9050919050565b7f4d696c6573746f6e6520646f6573206e6f742065786973740000000000000000600082015250565b600061258e601883611e2a565b915061259982612558565b602082019050919050565b600060208201905081810360008301526125bd81612581565b9050919050565b7f496e76616c696420667265656c616e6365722061646472657373000000000000600082015250565b60006125fa601a83611e2a565b9150612605826125c4565b602082019050919050565b60006020820190508181036000830152612629816125ed565b9050919050565b7f436c69656e7420616e6420667265656c616e6365722063616e6e6f742062652060008201527f7468652073616d65000000000000000000000000000000000000000000000000602082015250565b600061268c602883611e2a565b915061269782612630565b604082019050919050565b600060208201905081810360008301526126bb8161267f565b9050919050565b7f546f74616c20616d6f756e74206d75737420626520677265617465722074686160008201527f6e20300000000000000000000000000000000000000000000000000000000000602082015250565b600061271e602383611e2a565b9150612729826126c2565b604082019050919050565b6000602082019050818103600083015261274d81612711565b9050919050565b7f496e73756666696369656e74207061796d656e7420666f722070726f6a656374600082015250565b600061278a602083611e2a565b915061279582612754565b602082019050919050565b600060208201905081810360008301526127b98161277d565b9050919050565b7f4e487b7100000000000000000000000000000000000000000000000000000000600052601160045260246000fd5b60006127fa82611d6c565b91507fffffffffffffffffffffffffffffffffffffffffffffffffffffffffffffffff82141561282d5761282c6127c0565b5b600182019050919050565b7f4f6e6c79206f776e65722063616e2063616c6c20746869732066756e6374696f60008201527f6e00000000000000000000000000000000000000000000000000000000000000602082015250565b6000612894602183611e2a565b915061289f82612838565b604082019050919050565b600060208201905081810360008301526128c381612887565b9050919050565b7f506c6174666f726d206665652063616e6e6f7420657863656564203130250000600082015250565b6000612900601e83611e2a565b915061290b826128ca565b602082019050919050565b6000602082019050818103600083015261292f816128f3565b9050919050565b7f4f6e6c7920636c69656e742063616e20617070726f7665206d696c6573746f6e60008201527f6573000000000000000000000000000000000000000000000000000000000000602082015250565b6000612992602283611e2a565b915061299d82612936565b604082019050919050565b600060208201905081810360008301526129c181612985565b9050919050565b7f4d696c6573746f6e6520616c726561647920617070726f766564000000000000600082015250565b60006129fe601a83611e2a565b9150612a09826129c8565b602082019050919050565b60006020820190508181036000830152612a2d816129f1565b9050919050565b7f4d696c6573746f6e6520616c7265616479207061696400000000000000000000600082015250565b6000612a6a601683611e2a565b9150612a7582612a34565b602082019050919050565b60006020820190508181036000830152612a9981612a5d565b9050919050565b7f4f6e6c792070726f6a656374207061727469636970616e74732063616e20636160008201527f6c6c20746869732066756e6374696f6e00000000000000000000000000000000602082015250565b6000612afc603083611e2a565b9150612b0782612aa0565b604082019050919050565b60006020820190508181036000830152612b2b81612aef565b9050919050565b7f50726f6a65637420697320636f6d706c65746564000000000000000000000000600082015250565b6000612b68601483611e2a565b9150612b7382612b32565b602082019050919050565b60006020820190508181036000830152612b9781612b5b565b9050919050565b7f4f6e6c7920636c69656e742063616e20637265617465206d696c6573746f6e6560008201527f7300000000000000000000000000000000000000000000000000000000000000602082015250565b6000612bfa602183611e2a565b9150612c0582612b9e565b604082019050919050565b60006020820190508181036000830152612c2981612bed565b9050919050565b7f4d696c6573746f6e6520616d6f756e74206d757374206265206772656174657260008201527f207468616e203000000000000000000000000000000000000000000000000000602082015250565b6000612c8c602783611e2a565b9150612c9782612c30565b604082019050919050565b60006020820190508181036000830152612cbb81612c7f565b9050919050565b7f4d696c6573746f6e65206e6f7420617070726f76656400000000000000000000600082015250565b6000612cf8601683611e2a565b9150612d0382612cc2565b602082019050919050565b60006020820190508181036000830152612d2781612ceb565b9050919050565b7f5061796d656e7420616c72656164792072656c65617365640000000000000000600082015250565b6000612d64601883611e2a565b9150612d6f82612d2e565b602082019050919050565b60006020820190508181036000830152612d9381612d57565b9050919050565b6000612da582611d6c565b9150612db083611d6c565b9250817fffffffffffffffffffffffffffffffffffffffffffffffffffffffffffffffff0483118215151615612de957612de86127c0565b5b828202905092915050565b7f4e487b7100000000000000000000000000000000000000000000000000000000600052601260045260246000fd5b6000612e2e82611d6c565b9150612e3983611d6c565b925082612e4957612e48612df4565b5b828204905092915050565b6000612e5f82611d6c565b9150612e6a83611d6c565b925082821015612e7d57612e7c6127c0565b5b828203905092915050565b7f4e487b7100000000000000000000000000000000000000000000000000000000600052603260045260246000fdfea26469706673582212204cbcdaf97e3bbebb707e9fe617e94a0b96deaf3225362da818291b5dd9cc7ae864736f6c634300080a0033",
  "immutableReferences": {},
  "source": "// SPDX-License-Identifier: MIT\r\npragma solidity ^0.8.10;\r\n\r\ncontract Freelancer {\r\n    // Simple structs\r\n    struct Project {\r\n        uint256 id;\r\n        address client;\r\n        address freelancer;\r\n        uint256 totalAmount;\r\n        string title;\r\n        bool isCompleted;\r\n        uint256 createdAt;\r\n    }\r\n    \r\n    struct Milestone {\r\n        uint256 id;\r\n        uint256 projectId;\r\n        string description;\r\n        uint256 amount;\r\n        bool isApproved;\r\n        bool isPaid;\r\n    }\r\n    \r\n    // State variables\r\n    mapping(uint256 => Project) public projects;\r\n    mapping(uint256 => Milestone) public milestones;\r\n    mapping(address => uint256[]) public userProjects;\r\n    mapping(uint256 => uint256[]) public projectMilestones;\r\n    \r\n    uint256 public projectCounter;\r\n    uint256 public milestoneCounter;\r\n    \r\n    address public owner;\r\n    uint256 public platformFeePercentage = 250; // 2.5%\r\n    \r\n    // Simple events\r\n    event ProjectCreated(uint256 indexed projectId, address indexed client, address indexed freelancer, uint256 totalAmount);\r\n    event MilestoneCreated(uint256 indexed milestoneId, uint256 indexed projectId, uint256 amount);\r\n    event MilestoneApproved(uint256 indexed milestoneId, uint256 indexed projectId);\r\n    event PaymentReleased(uint256 indexed milestoneId, uint256 indexed projectId, uint256 amount);\r\n    event ProjectCompleted(uint256 indexed projectId);\r\n    \r\n    // Modifiers\r\n    modifier onlyOwner() {\r\n        require(msg.sender == owner, \"Only owner can call this function\");\r\n        _;\r\n    }\r\n    \r\n    modifier onlyProjectParticipant(uint256 _projectId) {\r\n        require(\r\n            msg.sender == projects[_projectId].client || \r\n            msg.sender == projects[_projectId].freelancer,\r\n            \"Only project participants can call this function\"\r\n        );\r\n        _;\r\n    }\r\n    \r\n    modifier projectExists(uint256 _projectId) {\r\n        require(projects[_projectId].id != 0, \"Project does not exist\");\r\n        _;\r\n    }\r\n    \r\n    modifier milestoneExists(uint256 _milestoneId) {\r\n        require(milestones[_milestoneId].id != 0, \"Milestone does not exist\");\r\n        _;\r\n    }\r\n    \r\n    constructor() {\r\n        owner = msg.sender;\r\n    }\r\n    \r\n    // Create a new project\r\n    function createProject(\r\n        address _freelancer,\r\n        uint256 _totalAmount,\r\n        string memory _title\r\n    ) external payable {\r\n        require(_freelancer != address(0), \"Invalid freelancer address\");\r\n        require(_freelancer != msg.sender, \"Client and freelancer cannot be the same\");\r\n        require(_totalAmount > 0, \"Total amount must be greater than 0\");\r\n        require(msg.value >= _totalAmount, \"Insufficient payment for project\");\r\n        \r\n        projectCounter++;\r\n        \r\n        projects[projectCounter] = Project({\r\n            id: projectCounter,\r\n            client: msg.sender,\r\n            freelancer: _freelancer,\r\n            totalAmount: _totalAmount,\r\n            title: _title,\r\n            isCompleted: false,\r\n            createdAt: block.timestamp\r\n        });\r\n        \r\n        userProjects[msg.sender].push(projectCounter);\r\n        userProjects[_freelancer].push(projectCounter);\r\n        \r\n        emit ProjectCreated(projectCounter, msg.sender, _freelancer, _totalAmount);\r\n    }\r\n    \r\n    // Create a milestone for a project\r\n    function createMilestone(\r\n        uint256 _projectId,\r\n        string memory _description,\r\n        uint256 _amount\r\n    ) external onlyProjectParticipant(_projectId) projectExists(_projectId) {\r\n        Project storage project = projects[_projectId];\r\n        require(!project.isCompleted, \"Project is completed\");\r\n        require(msg.sender == project.client, \"Only client can create milestones\");\r\n        require(_amount > 0, \"Milestone amount must be greater than 0\");\r\n        \r\n        milestoneCounter++;\r\n        \r\n        milestones[milestoneCounter] = Milestone({\r\n            id: milestoneCounter,\r\n            projectId: _projectId,\r\n            description: _description,\r\n            amount: _amount,\r\n            isApproved: false,\r\n            isPaid: false\r\n        });\r\n        \r\n        projectMilestones[_projectId].push(milestoneCounter);\r\n        \r\n        emit MilestoneCreated(milestoneCounter, _projectId, _amount);\r\n    }\r\n    \r\n    // Approve a milestone (simplified - no deliverable submission needed)\r\n    function approveMilestone(uint256 _milestoneId) external milestoneExists(_milestoneId) {\r\n        Milestone storage milestone = milestones[_milestoneId];\r\n        Project storage project = projects[milestone.projectId];\r\n        \r\n        require(msg.sender == project.client, \"Only client can approve milestones\");\r\n        require(!milestone.isApproved, \"Milestone already approved\");\r\n        require(!milestone.isPaid, \"Milestone already paid\");\r\n        \r\n        milestone.isApproved = true;\r\n        \r\n        emit MilestoneApproved(_milestoneId, milestone.projectId);\r\n        \r\n        // Auto-release payment\r\n        _releasePayment(_milestoneId);\r\n    }\r\n    \r\n    // Release payment for an approved milestone\r\n    function _releasePayment(uint256 _milestoneId) internal {\r\n        Milestone storage milestone = milestones[_milestoneId];\r\n        Project storage project = projects[milestone.projectId];\r\n        \r\n        require(milestone.isApproved, \"Milestone not approved\");\r\n        require(!milestone.isPaid, \"Payment already released\");\r\n        \r\n        milestone.isPaid = true;\r\n        \r\n        uint256 platformFee = (milestone.amount * platformFeePercentage) / 10000;\r\n        uint256 freelancerAmount = milestone.amount - platformFee;\r\n        \r\n        // Transfer payment to freelancer\r\n        payable(project.freelancer).transfer(freelancerAmount);\r\n        \r\n        // Transfer platform fee to owner\r\n        if (platformFee > 0) {\r\n            payable(owner).transfer(platformFee);\r\n        }\r\n        \r\n        emit PaymentReleased(_milestoneId, milestone.projectId, freelancerAmount);\r\n        \r\n        // Mark project as completed if all milestones are paid\r\n        bool allMilestonesPaid = true;\r\n        uint256[] memory milestoneIds = projectMilestones[milestone.projectId];\r\n        for (uint256 i = 0; i < milestoneIds.length; i++) {\r\n            if (!milestones[milestoneIds[i]].isPaid) {\r\n                allMilestonesPaid = false;\r\n                break;\r\n            }\r\n        }\r\n        \r\n        if (allMilestonesPaid) {\r\n            project.isCompleted = true;\r\n            emit ProjectCompleted(milestone.projectId);\r\n        }\r\n    }\r\n    \r\n    // Simple function to complete project (only client can call)\r\n    function completeProject(uint256 _projectId) external projectExists(_projectId) {\r\n        Project storage project = projects[_projectId];\r\n        require(msg.sender == project.client, \"Only client can complete project\");\r\n        require(!project.isCompleted, \"Project already completed\");\r\n        \r\n        project.isCompleted = true;\r\n        emit ProjectCompleted(_projectId);\r\n    }\r\n    \r\n    // Get project details (simplified)\r\n    function getProject(uint256 _projectId) external view projectExists(_projectId) returns (\r\n        uint256 id,\r\n        address client,\r\n        address freelancer,\r\n        uint256 totalAmount,\r\n        string memory title,\r\n        bool isCompleted,\r\n        uint256 createdAt\r\n    ) {\r\n        Project memory project = projects[_projectId];\r\n        return (\r\n            project.id,\r\n            project.client,\r\n            project.freelancer,\r\n            project.totalAmount,\r\n            project.title,\r\n            project.isCompleted,\r\n            project.createdAt\r\n        );\r\n    }\r\n    \r\n    // Get milestone details (simplified)\r\n    function getMilestone(uint256 _milestoneId) external view milestoneExists(_milestoneId) returns (\r\n        uint256 id,\r\n        uint256 projectId,\r\n        string memory description,\r\n        uint256 amount,\r\n        bool isApproved,\r\n        bool isPaid\r\n    ) {\r\n        Milestone memory milestone = milestones[_milestoneId];\r\n        return (\r\n            milestone.id,\r\n            milestone.projectId,\r\n            milestone.description,\r\n            milestone.amount,\r\n            milestone.isApproved,\r\n            milestone.isPaid\r\n        );\r\n    }\r\n    \r\n    // Get user's projects\r\n    function getUserProjects(address _user) external view returns (uint256[] memory) {\r\n        return userProjects[_user];\r\n    }\r\n    \r\n    // Get project milestones\r\n    function getProjectMilestones(uint256 _projectId) external view projectExists(_projectId) returns (uint256[] memory) {\r\n        return projectMilestones[_projectId];\r\n    }\r\n    \r\n    // Update platform fee (only owner)\r\n    function updatePlatformFee(uint256 _newFeePercentage) external onlyOwner {\r\n        require(_newFeePercentage <= 1000, \"Platform fee cannot exceed 10%\");\r\n        platformFeePercentage = _newFeePercentage;\r\n    }\r\n    \r\n    // Get contract balance\r\n    function getContractBalance() external view returns (uint256) {\r\n        return address(this).balance;\r\n    }\r\n}\r\n",
  "sourcePath": "D:\\Freelancer\\contracts\\Freelancer.sol",
  "compiler": {
    "name": "solc",
    "version": "0.8.10+commit.fc410830.Emscripten.clang"
  },
  "schemaVersion": "3.4.16",
  "updatedAt": "2025-10-19T19:29:15.971Z",
  "networkType": "ethereum",
  "devdoc": {
    "kind": "dev",
    "methods": {},
    "version": 1
  },
  "userdoc": {
    "kind": "user",
    "methods": {},
    "version": 1
  }
}